S0110000446176614A6F6E61732E737265639C
S11300000C9434000C943E000C943E000C943E007E
S11300100C943E000C943E000C943E000C943E0064
S11300200C943E000C943E000C943E000C943E0054
S11300300C943E000C943E000C943E000C943E0044
S11300400C943E000C943E000C943E000C943E0034
S11300500C943E000C943E000C943E000C943E0024
S11300600C943E000C943E0011241FBECFEFD8E048
S1130070DEBFCDBF0E9472000C9498000C94000067
S1130080009739F48BB18F778BB985B18E7F85B9A1
S1130090089599233CF48BB180688BB985B18E7F28
S11300A085B908958BB18F778BB98BB181608BB98A
S11300B00895009739F48BB18F7D8BB98BB18F7E06
S11300C08BB9089599233CF48BB180628BB98BB1C1
S11300D08F7E8BB908958BB18F7D8BB98BB1806185
S11300E08BB9089588EF8AB983E084B981E8809355
S11300F080008BE08093810083E28093B00084E0F1
S11301008093B1008CE385B985B18F7B85B980E09C
S113011090E00E94400080E090E00E9459008FE748
S113012090E090938900809388008093B400FFCF7F
S1070130F894FFCF6D
S9030000FC
