S0110000446176614A6F6E61732E737265639C
S11300000C9434000C9446000C9446000C94460066
S11300100C9446000C9446000C9446000C94460044
S11300200C9446000C9446000C9446000C94460034
S11300300C9446000C9446000C9446000C94460024
S11300400C9446000C9446000C9446000C94460014
S11300500C9446000C9446000C9446000C94460004
S11300600C9446000C94460011241FBECFEFD8E038
S1130070DEBFCDBF21E0A0E0B1E001C01D92A03001
S1130080B207E1F70E947A000C94C6000C940000B9
S1130090009739F48BB18F778BB985B18E7F85B991
S11300A0089599233CF48BB180688BB985B18E7F18
S11300B085B908958BB18F778BB98BB181608BB97A
S11300C00895009739F48BB18F7D8BB98BB18F7EF6
S11300D08BB9089599233CF48BB180628BB98BB1B1
S11300E08F7E8BB908958BB18F7D8BB98BB1806175
S11300F08BB9089588EF8AB983E084B981E8809345
S113010080008BE08093810083E28093B00084E0E0
S11301108093B10087E880937A0080E480937C0028
S113012084B1836084B915B885B18F7B85B980E0CB
S113013090E00E94480080E090E00E94610020E08E
S113014030E0EAE7F0E080818064808380917A0087
S113015084FFFCCF809178009091790087369105D7
S113016080F380917800909179008939910548F75E
S1130170232B31F485B1886085B921E030E0E1CFEB
S113018085B1877F85B920E030E0DBCFF894FFCFDD
S9030000FC
