S0110000446176614A6F6E61732E737265639C
S11300000C9444000C9481010C9461000C946100E4
S11300100C9461000C9461000C9461000C946100D8
S11300200C9461000C9461000C9461000C946100C8
S11300300C9461000C9461000C9461000C946100B8
S11300400C9461000C9461000C9461000C946100A8
S11300500C9461000C9461000C9461000C94610098
S11300600C9461000C946100B502D002F3021603F3
S113007039035C0381039C03AD03ED032B04690482
S1130080A704D30403053D0511241FBECFEFD8E018
S1130090DEBFCDBF11E0A0E0B1E0E8EDF0E102C0C9
S11300A005900D92A238B107D9F721E0A2E8B1E09A
S11300B001C01D92A438B207E1F70E945F020C94BC
S11300C06A080C940000AC0120E007C09091C000C5
S11300D095FFFCCF3093C6002F5FFA01E20FF11DAC
S11300E030813111F3CF0895EF92FF921F93CF9394
S11300F0DF93CDB7DEB7E2970FB6F894DEBF0FBE3D
S1130100CDBF339902C010E001C011E032991260F2
S11301101F921F9380E091E09F938F93CE010196ED
S11301207C019F938F930E948005C7010E94630006
S11301300F900F900F900F900F900F90812FE296D9
S11301400FB6F894DEBF0FBECDBFDF91CF911F91E4
S1130150FF90EF900895EF92FF921F93CF93DF9358
S1130160CDB7DEB7E2970FB6F894DEBF0FBECDBFB2
S1130170ECE7F0E08081807F8083EAE7F0E0808133
S11301808064808380917A0084FFFCCF2091780082
S113019030917900ECE7F0E0808181608083EAE7C8
S11301A0F0E080818064808380917A0084FFFCCFBA
S11301B080917800909179008D3B924010F010E08E
S11301C001C011E02D3B324008F412601F921F93CE
S11301D085E191E09F938F93CE0101967C019F93DB
S11301E08F930E948005C7010E9463000F900F90B7
S11301F00F900F900F900F90812FE2960FB6F89406
S1130200DEBF0FBECDBFDF91CF911F91FF90EF9066
S11302100895FF920F931F93CF93DF93CDB7DEB76B
S1130220E2970FB6F894DEBF0FBECDBFF62E1F9235
S11302308F9386E291E09F938F938E010F5F1F4F00
S11302401F930F930E948005C8010E9463001F92B0
S1130250FF928AE391E09F938F931F930F930E94E1
S11302608005C8010E9463000FB6F894DEBF0FBE7C
S1130270CDBFE2960FB6F894DEBF0FBECDBFDF91BF
S1130280CF911F910F91FF900895FF920F931F93A9
S1130290CF93DF93CDB7DEB7E2970FB6F894DEBF06
S11302A00FBECDBFF62E1F928F9386E291E09F93EF
S11302B08F938E010F5F1F4F1F930F930E94800532
S11302C0C8010E9463001F92FF928AE391E09F930A
S11302D08F931F930F930E948005C8010E946300AF
S11302E00FB6F894DEBF0FBECDBFE2960FB6F894FA
S11302F0DEBF0FBECDBFDF91CF911F910F91FF9055
S113030008951F920F920FB60F92112480E591E089
S11303100E94630061E080E00E94090161E080E0E6
S11303200E94450185B18F7B85B9E0918201F091EE
S113033083010995FFCFCF930E94AB008230B9F0BF
S1130340833039F1813009F046C060E08FEF0E94BC
S1130350090161E08FEF0E9445012FEF81EE94E0E7
S1130360215080409040E1F700C0000034C061E0BB
S11303708FEF0E94090160E08FEF0E9445012FEF8B
S113038081EE94E0215080409040E1F700C00000ED
S113039022C060E08FEF0E94090160E08FEF0E94AD
S11303A045012FEF82E597E0215080409040E1F72E
S11303B000C0000061E08FEF0E94090160E08FEF50
S11303C00E9445012FEF83EC99E02150804090403A
S11303D0E1F700C000000E947400C82F823069F069
S11303E08330A1F08130D1F461E088EC0E940901EE
S11303F060E088EC0E94450111C060E088EC0E9436
S1130400090161E088EC0E94450108C061E08FEFBA
S11304100E94090161E08FEF0E9445012FEF83EDF7
S113042090E3215080409040E1F700C00000C111EA
S1130430D2CF2FEF83ED90E3215080409040E1F73D
S113044000C00000CF910895EF92FF921F93CF93C5
S1130450DF93CDB7DEB7E2970FB6F894DEBF0FBED9
S1130460CDBF1A9902C010E001C018E01B991460B6
S11304701C9912601D9911601F921F938DE591E0E4
S11304809F938F93CE0101967C019F938F930E943B
S11304908005C7010E9463000F900F900F900F908A
S11304A00F900F90812FE2960FB6F894DEBF0FBE27
S11304B0CDBFDF91CF911F91FF90EF9008951F93CF
S11304C0CF93DF931092C50088E08093C40096E038
S11304D09093C2008093C1001BB880EF8AB915B80D
S11304E081E084B984B18C6384B981E8809380000D
S11304F08BE08093810083E28093B00084E080935A
S1130500B10017B818B887E880937A0080E4809324
S11305107C00E9E6F0E08081826080838DB38160B5
S11305208DBB8CE385B985B18F7B85B961E080E0B3
S11305300E94090161E080E00E94450178948DE603
S113054091E00E9463004A9BFECF85E791E00E9400
S113055063000E94240290E08031910508F0B9C242
S1130560FC01EC5CFF4F0C947A050E949B0161E056
S113057088EC0E94090161E088EC0E944501F5CFF6
S113058061E08FEF0E94090161E08CE80E9445015F
S11305908FE99FE00197F1F700C00000219602C0A7
S11305A0C0E0D0E0C13D97E0D90750F30E949B0121
S11305B061E088EC0E94090161E088EC0E94450139
S11305C0F5CF61E08FE70E94090161E08BE40E94AE
S11305D045010E949B018FE99FE00197F1F700C05C
S11305E00000219602C0C0E0D0E0C93E93E0D907E4
S11305F044F30E949B0161E088EC0E94090161E0E0
S113060088EC0E944501F5CF61E086E40E9409016F
S113061061E08FE70E9445010E949B018FE99FE002
S11306200197F1F700C00000219602C0C0E0D0E0BD
S1130630C93E93E0D90744F30E949B0161E088EC32
S11306400E94090161E088EC0E944501F5CF61E058
S11306508BE40E94090161E08FE70E9445010E943A
S11306609B018FE99FE00197F1F700C000002196FC
S113067002C0C0E0D0E0C93E93E0D90744F30E9431
S11306809B0161E088EC0E94090161E088EC0E9412
S11306904501F5CF61E088EC0E94090161E084EB3B
S11306A00E9445010E949B018FE99FE00197F1F7A9
S11306B000C00000219602C0C0E0D0E0C93E93E033
S11306C0D90744F30E949B010E949B0161E088ECDE
S11306D00E94090161E088EC0E944501F5CF61E0C8
S11306E084EB0E94090161E088EC0E9445010E94AC
S11306F09B018FE99FE00197F1F700C0000021966C
S113070002C0C0E0D0E0C93E93E0D90744F30E94A0
S11307109B0161E088EC0E94090161E088EC0E9481
S11307204501F5CF0E949B018FE99FE00197F1F706
S113073000C00000219602C0C0E0D0E0C93B9BE0AD
S1130740D90784F30E949B0161E088EC0E940901AF
S113075061E088EC0E944501F5CF61E088EC0E94DD
S1130760090161E088EC0E944501C0E0D0E011E09D
S11307701DC00E949B0161E084E10E940901183CB4
S113078011F084E101C080E061E00E9445018FE93D
S11307909FE00197F1F700C00000C43F91E0D90742
S11307A021F481E0111180E0182F2196C53F81E0EA
S11307B0D807FCF2DACF61E08FE70E94090161E01B
S11307C086E40E9445010E949B018FE99FE0019706
S11307D0F1F700C00000219602C0C0E0D0E0C93E9D
S11307E093E0D90744F3C0E0D0E011E01DC00E94BB
S11307F09B0161E084E10E940901183C11F084E14D
S113080001C080E061E00E9445018FE99FE001970B
S1130810F1F700C00000C43F91E0D90721F481E062
S1130820111180E0182F2196C53F81E0D807FCF212
S1130830DACF61E08FE70E94090161E08BE40E9456
S113084045010E949B018FE99FE00197F1F700C0E9
S11308500000219602C0C0E0D0E0C93E93E0D90771
S113086044F3C0E0D0E011E01DC00E949B0161E0B0
S113087084E10E940901183C11F084E101C080E088
S113088061E00E9445018FE99FE00197F1F700C004
S11308900000C43F91E0D90721F481E0111180E008
S11308A0182F2196C53F81E0D807FCF2DACF61E02A
S11308B086E40E94090161E08FE70E9445010E94DD
S11308C09B018FE99FE00197F1F700C0000021969A
S11308D002C0C0E0D0E0C93E93E0D90744F3C0E0D1
S11308E0D0E011E01DC00E949B0161E084E10E9400
S11308F00901183C11F084E101C080E061E00E942C
S113090045018FE99FE00197F1F700C00000C43F63
S113091091E0D90721F481E0111180E0182F21968C
S1130920C53F81E0D807FCF2DACF61E08BE40E9496
S1130930090161E08FE70E9445010E949B018FE954
S11309409FE00197F1F700C00000219602C0C0E0CB
S1130950D0E0C93E93E0D90744F3C0E0D0E011E011
S11309601DC00E949B0161E084E10E940901183CC2
S113097011F084E101C080E061E00E9445018FE94B
S11309809FE00197F1F700C00000C43F91E0D90750
S113099021F481E0111180E0182F2196C53F81E0F8
S11309A0D807FCF2DACF61E088EC0E94090161E02B
S11309B084EB0E9445010E949B01C0E0D0E011E05D
S11309C01DC00E949B0161E084E10E940901183C62
S11309D011F084E101C080E061E00E9445018FE9EB
S11309E09FE00197F1F700C00000C43F91E0D907F0
S11309F021F481E0111180E0182F2196C53F81E098
S1130A00D807FCF2DACF61E084EB0E94090161E0CF
S1130A1088EC0E9445010E949B01C0E0D0E011E0F7
S1130A201DC00E949B0161E084E10E940901183C01
S1130A3011F084E101C080E061E00E9445018FE98A
S1130A409FE00197F1F700C00000C43F91E0D9078F
S1130A5021F481E0111180E0182F2196C53F81E037
S1130A60D807FCF2DACF0E949B018FE99FE001973F
S1130A70F1F700C00000219602C0C0E0D0E0C93BFD
S1130A809BE0D90784F3C0E0D0E011E01DC00E94D0
S1130A909B0161E084E10E940901183C11F084E1AA
S1130AA001C080E061E00E9445018FE99FE0019769
S1130AB0F1F700C00000C43F91E0D90721F481E0C0
S1130AC0111180E0182F2196C53F81E0D807FCF270
S1130AD0DACF62E080E00E94090162E080E00E94D7
S1130AE0450185B18F7B85B980E090E0DF91CF919E
S1130AF01F910895EE0FFF1F0590F491E02D0994C6
S1130B00AEE0B0E0E6E8F5E00C9441080D891E89FA
S1130B1086E08C831A8309838FEF9FE79E838D83FE
S1130B20AE01475E5F4F6F89788DCE0101960E94BA
S1130B30A205EF81F885E00FF11F10822E96E4E004
S1130B400C945D08ABE0B0E0E8EAF5E00C943308FF
S1130B506C017B018A01FC0117821682838181FF6B
S1130B60CCC1CE0101963C01F6019381F70193FDBE
S1130B70859193FF81917F01882309F4BAC185325D
S1130B8039F493FD859193FF81917F01853229F496
S1130B90B60190E00E949907E7CF912C212C312CCB
S1130BA0FFE1F315D8F08B3279F038F4803279F024
S1130BB08332A1F4232D20611DC08D3261F0803376
S1130BC069F4232D216016C0832D8260382EE32D15
S1130BD0E4603E2E2AC0F32DF8601DC037FC2DC002
S1130BE020ED280F2A3040F08E32B9F436FC81C152
S1130BF0232D2064322E19C036FE06C08AE0989E4A
S1130C00200D1124922E11C0EAE02E9E200D1124F5
S1130C10222EF32DF0623F2E08C08C3621F4832D52
S1130C208068382E02C0883641F4F70193FD85911F
S1130C3093FF81917F018111B3CF982F9F7D9554AC
S1130C40933028F40C5F1F4F9FE399830DC08336C4
S1130C5031F0833771F0833509F059C021C0F801B0
S1130C60808189830E5F1F4F88248394912C5301C4
S1130C7013C02801F2E04F0E511CF801A080B1808E
S1130C8036FE03C0692D70E002C06FEF7FEFC5012F
S1130C900E948E074C018201F32DFF773F2E16C070
S1130CA0280122E0420E511CF801A080B18036FEDA
S1130CB003C0692D70E002C06FEF7FEFC5010E9491
S1130CC083074C01F32DF0683F2E820133FC1BC0D7
S1130CD0822D90E088169906B0F4B60180E290E087
S1130CE00E9499072A94F4CFF50137FC859137FEC9
S1130CF081915F01B60190E00E94990721102A9426
S1130D0021E0821A91088114910471F7E8C08436B5
S1130D1011F0893641F5F80137FE07C06081718111
S1130D20828193810C5F1F4F08C060817181072EFF
S1130D30000C880B990B0E5F1F4FF32DFF763F2E8F
S1130D4097FF09C090958095709561957F4F8F4F5F
S1130D509F4FF0683F2E2AE030E0A3010E94D507A0
S1130D60882E861845C0853731F4232D2F7EB22E68
S1130D702AE030E025C0932D997FB92E8F36C1F03B
S1130D8018F4883579F0B5C0803719F0883721F028
S1130D90B0C0E92FE061BE2EB4FE0DC0FB2DF4609F
S1130DA0BF2E09C034FE0AC0292F2660B22E06C009
S1130DB028E030E005C020E130E002C020E132E06C
S1130DC0F801B7FE07C060817181828193810C5F55
S1130DD01F4F06C06081718180E090E00E5F1F4F5D
S1130DE0A3010E94D507882E8618FB2DFF773F2E7E
S1130DF036FE0DC0232D2E7FA22E891458F434FE06
S1130E000BC032FC09C0832D8E7EA82E05C0B82CE1
S1130E10A32C03C0B82C01C0B92CA4FE0FC0FE0142
S1130E20E80DF11D8081803321F49A2D997EA92E3D
S1130E3009C0A2FE06C0B394B39404C08A2D867878
S1130E4009F0B394A3FC11C0A0FE06C0B21488F448
S1130E50280C922C9B180EC0B21460F4B60180E2E8
S1130E6090E00E949907B394F7CFB21418F42B18AA
S1130E7002C0982C212CA4FE10C0B60180E390E09F
S1130E800E949907A2FE17C0A1FC03C088E790E066
S1130E9002C088E590E0B6010CC08A2D867859F02E
S1130EA0A1FE02C08BE201C080E2A7FC8DE2B60184
S1130EB090E00E949907891438F4B60180E390E029
S1130EC00E9499079A94F7CF8A94F301E80DF11DD3
S1130ED08081B60190E00E9499078110F5CF22200D
S1130EE009F442CEB60180E290E00E9499072A9468
S1130EF0F6CFF6018681978102C08FEF9FEF2B9684
S1130F00E2E10C944F08FC0105906150704001101F
S1130F10D8F7809590958E0F9F1F0895FC0161501E
S1130F20704001900110D8F7809590958E0F9F1F07
S1130F3008950F931F93CF93DF93FB01238121FD2A
S1130F4003C08FEF9FEF2CC022FF16C0468157814C
S1130F50248135814217530744F4A081B1819D0156
S1130F602F5F3F4F318320838C93268137812F5FFE
S1130F703F4F3783268314C08B01EC01FB010084AF
S1130F80F185E02D0995892BE1F6D80116968D910E
S1130F909C911797019617969C938E931697CE0162
S1130FA0DF91CF911F910F910895FA01AA2728305C
S1130FB051F1203181F1E8946F936E7F6E5F7F4F22
S1130FC08F4F9F4FAF4FB1E03ED0B4E03CD0670F9E
S1130FD0781F891F9A1FA11D680F791F8A1F911DF1
S1130FE0A11D6A0F711D811D911DA11D20D009F441
S1130FF068943F912AE0269F11243019305D319383
S1131000DEF6CF010895462F4770405D4193B3E06B
S11310100FD0C9F7F6CF462F4F70405D4A3318F012
S1131020495D31FD4052419302D0A9F7EACFB4E0C3
S1131030A6959795879577956795BA95C9F700977B
S11310406105710508959B01AC010A2E069457951C
S1131050479537952795BA95C9F7620F731F841F73
S1131060951FA01D08952F923F924F925F926F9209
S11310707F928F929F92AF92BF92CF92DF92EF9224
S1131080FF920F931F93CF93DF93CDB7DEB7CA1BA5
S1131090DB0B0FB6F894DEBF0FBECDBF09942A88D0
S11310A0398848885F846E847D848C849B84AA8478
S11310B0B984C884DF80EE80FD800C811B81AA8105
S11310C0B981CE0FD11D0FB6F894DEBF0FBECDBFD0
S10B10D0ED010895F894FFCF2F
S11310D864697374616E63652073656E736F723AC5
S11310E82025640A006C696E652073656E736F72DF
S11310F83A2025640A006C656674206D6F746F72FB
S11311082070776D3A2025640A006C656674206D3A
S11311186F746F722073746174653A2025640A00D1
S113112853746F7070696E672E2E2E0A006469708E
S1131138207377697463683A2025640A00526561EC
S11311486479210A005374617274696E672E2E2EB5
S10511580A0087
S9030000FC
